{
  "_format": "hh-sol-artifact-1",
  "contractName": "CardTransactionRegistry",
  "sourceName": "contracts/newCardTransactionRegistry.sol",
  "abi": [
    {
      "inputs": [
        {
          "internalType": "address",
          "name": "tokenAddress",
          "type": "address"
        },
        {
          "internalType": "address",
          "name": "_feeCollector",
          "type": "address"
        }
      ],
      "stateMutability": "nonpayable",
      "type": "constructor"
    },
    {
      "inputs": [],
      "name": "feeCollector",
      "outputs": [
        {
          "internalType": "address",
          "name": "",
          "type": "address"
        }
      ],
      "stateMutability": "view",
      "type": "function"
    },
    {
      "inputs": [],
      "name": "getAllTransactions",
      "outputs": [
        {
          "internalType": "string[]",
          "name": "cardIds",
          "type": "string[]"
        },
        {
          "internalType": "string[]",
          "name": "strhash",
          "type": "string[]"
        },
        {
          "internalType": "string[]",
          "name": "statuses",
          "type": "string[]"
        }
      ],
      "stateMutability": "view",
      "type": "function"
    },
    {
      "inputs": [],
      "name": "getTokenAddress",
      "outputs": [
        {
          "internalType": "address",
          "name": "",
          "type": "address"
        }
      ],
      "stateMutability": "view",
      "type": "function"
    },
    {
      "inputs": [
        {
          "internalType": "address",
          "name": "account",
          "type": "address"
        }
      ],
      "name": "isAddressWhitelisted",
      "outputs": [
        {
          "internalType": "bool",
          "name": "",
          "type": "bool"
        }
      ],
      "stateMutability": "view",
      "type": "function"
    },
    {
      "inputs": [
        {
          "internalType": "string",
          "name": "_strhash",
          "type": "string"
        }
      ],
      "name": "registerCardTransaction",
      "outputs": [],
      "stateMutability": "nonpayable",
      "type": "function"
    },
    {
      "inputs": [
        {
          "internalType": "string",
          "name": "_strhash",
          "type": "string"
        }
      ],
      "name": "registerCardTransactionW",
      "outputs": [],
      "stateMutability": "nonpayable",
      "type": "function"
    },
    {
      "inputs": [
        {
          "internalType": "string",
          "name": "_strhash",
          "type": "string"
        }
      ],
      "name": "searchCardTransactionR",
      "outputs": [],
      "stateMutability": "nonpayable",
      "type": "function"
    },
    {
      "inputs": [
        {
          "internalType": "string",
          "name": "_strhash",
          "type": "string"
        }
      ],
      "name": "searchCardTransactionWR",
      "outputs": [],
      "stateMutability": "nonpayable",
      "type": "function"
    },
    {
      "inputs": [],
      "name": "transactionFee",
      "outputs": [
        {
          "internalType": "uint256",
          "name": "",
          "type": "uint256"
        }
      ],
      "stateMutability": "view",
      "type": "function"
    },
    {
      "inputs": [
        {
          "internalType": "uint256",
          "name": "newFee",
          "type": "uint256"
        }
      ],
      "name": "updateTransactionFee",
      "outputs": [],
      "stateMutability": "nonpayable",
      "type": "function"
    }
  ],
  "bytecode": "0x6080604052670de0b6b3a76400006003553480156200001d57600080fd5b5060405162002fd238038062002fd2833981810160405281019062000043919062000136565b816000806101000a81548173ffffffffffffffffffffffffffffffffffffffff021916908373ffffffffffffffffffffffffffffffffffffffff16021790555080600460006101000a81548173ffffffffffffffffffffffffffffffffffffffff021916908373ffffffffffffffffffffffffffffffffffffffff16021790555050506200017d565b600080fd5b600073ffffffffffffffffffffffffffffffffffffffff82169050919050565b6000620000fe82620000d1565b9050919050565b6200011081620000f1565b81146200011c57600080fd5b50565b600081519050620001308162000105565b92915050565b6000806040838503121562000150576200014f620000cc565b5b600062000160858286016200011f565b925050602062000173858286016200011f565b9150509250929050565b612e45806200018d6000396000f3fe608060405234801561001057600080fd5b506004361061009e5760003560e01c80634696e8fb116100665780634696e8fb146101495780639ed3edf014610165578063be4867e014610183578063c415b95c1461019f578063db24fcf3146101bd5761009e565b80630ee97696146100a357806310fe9ae8146100bf57806313f44d10146100dd57806327506f531461010d57806341fe2c651461012d575b600080fd5b6100bd60048036038101906100b89190611e26565b6101d9565b005b6100c7610273565b6040516100d49190611e94565b60405180910390f35b6100f760048036038101906100f29190611edb565b61029c565b6040516101049190611f23565b60405180910390f35b610115610340565b60405161012493929190612090565b60405180910390f35b61014760048036038101906101429190612211565b6106a5565b005b610163600480360381019061015e9190612211565b6109f2565b005b61016d610e38565b60405161017a9190612269565b60405180910390f35b61019d60048036038101906101989190612211565b610e3e565b005b6101a7611284565b6040516101b49190611e94565b60405180910390f35b6101d760048036038101906101d29190612211565b6112aa565b005b600460009054906101000a900473ffffffffffffffffffffffffffffffffffffffff1673ffffffffffffffffffffffffffffffffffffffff163373ffffffffffffffffffffffffffffffffffffffff1614610269576040517f08c379a0000000000000000000000000000000000000000000000000000000008152600401610260906122e1565b60405180910390fd5b8060038190555050565b60008060009054906101000a900473ffffffffffffffffffffffffffffffffffffffff16905090565b60008060009054906101000a900473ffffffffffffffffffffffffffffffffffffffff1673ffffffffffffffffffffffffffffffffffffffff16633af32abf836040518263ffffffff1660e01b81526004016102f89190611e94565b602060405180830381865afa158015610315573d6000803e3d6000fd5b505050506040513d601f19601f82011682018060405250810190610339919061232d565b9050919050565b60608060606000600280549050905060008167ffffffffffffffff81111561036b5761036a6120e6565b5b60405190808252806020026020018201604052801561039e57816020015b60608152602001906001900390816103895790505b50905060008267ffffffffffffffff8111156103bd576103bc6120e6565b5b6040519080825280602002602001820160405280156103f057816020015b60608152602001906001900390816103db5790505b50905060008367ffffffffffffffff81111561040f5761040e6120e6565b5b60405190808252806020026020018201604052801561044257816020015b606081526020019060019003908161042d5790505b50905060005b84811015610692576000600282815481106104665761046561235a565b5b90600052602060002001805461047b906123b8565b80601f01602080910402602001604051908101604052809291908181526020018280546104a7906123b8565b80156104f45780601f106104c9576101008083540402835291602001916104f4565b820191906000526020600020905b8154815290600101906020018083116104d757829003601f168201915b50505050509050600060018260405161050d9190612425565b9081526020016040518091039020604051806060016040529081600082018054610536906123b8565b80601f0160208091040260200160405190810160405280929190818152602001828054610562906123b8565b80156105af5780601f10610584576101008083540402835291602001916105af565b820191906000526020600020905b81548152906001019060200180831161059257829003601f168201915b505050505081526020016001820160009054906101000a900460ff1660038111156105dd576105dc61243c565b5b60038111156105ef576105ee61243c565b5b81526020016001820160019054906101000a900460ff1615151515815250509050818584815181106106245761062361235a565b5b602002602001018190525080600001518684815181106106475761064661235a565b5b602002602001018190525061065f81602001516117a6565b8484815181106106725761067161235a565b5b60200260200101819052505050808061068a9061249a565b915050610448565b5081838296509650965050505050909192565b60008054906101000a900473ffffffffffffffffffffffffffffffffffffffff1673ffffffffffffffffffffffffffffffffffffffff16633af32abf336040518263ffffffff1660e01b81526004016106fe9190611e94565b602060405180830381865afa15801561071b573d6000803e3d6000fd5b505050506040513d601f19601f8201168201806040525081019061073f919061232d565b61077e576040517f08c379a00000000000000000000000000000000000000000000000000000000081526004016107759061252e565b60405180910390fd5b600061078d8260888451611989565b905060018160405161079f9190612425565b908152602001604051809103902060010160019054906101000a900460ff16156107fe576040517f08c379a00000000000000000000000000000000000000000000000000000000081526004016107f59061259a565b60405180910390fd5b60008054906101000a900473ffffffffffffffffffffffffffffffffffffffff1673ffffffffffffffffffffffffffffffffffffffff166323b872dd33600460009054906101000a900473ffffffffffffffffffffffffffffffffffffffff166003546040518463ffffffff1660e01b815260040161087f939291906125ba565b6020604051808303816000875af115801561089e573d6000803e3d6000fd5b505050506040513d601f19601f820116820180604052508101906108c2919061232d565b610901576040517f08c379a00000000000000000000000000000000000000000000000000000000081526004016108f89061263d565b60405180910390fd5b6040518060600160405280838152602001600160038111156109265761092561243c565b5b8152602001600115158152506001826040516109429190612425565b908152602001604051809103902060008201518160000190816109659190612809565b5060208201518160010160006101000a81548160ff021916908360038111156109915761099061243c565b5b021790555060408201518160010160016101000a81548160ff0219169083151502179055509050506002819080600181540180825580915050600190039060005260206000200160009091909190915090816109ed9190612809565b505050565b60008054906101000a900473ffffffffffffffffffffffffffffffffffffffff1673ffffffffffffffffffffffffffffffffffffffff16633af32abf336040518263ffffffff1660e01b8152600401610a4b9190611e94565b602060405180830381865afa158015610a68573d6000803e3d6000fd5b505050506040513d601f19601f82011682018060405250810190610a8c919061232d565b610acb576040517f08c379a0000000000000000000000000000000000000000000000000000000008152600401610ac29061252e565b60405180910390fd5b6000610ada8260888451611989565b9050600181604051610aec9190612425565b908152602001604051809103902060010160019054906101000a900460ff16610b4a576040517f08c379a0000000000000000000000000000000000000000000000000000000008152600401610b4190612927565b60405180910390fd5b6000610b5983602a6054611989565b90506000610b6682611b0e565b90508073ffffffffffffffffffffffffffffffffffffffff163373ffffffffffffffffffffffffffffffffffffffff1614610bd6576040517f08c379a0000000000000000000000000000000000000000000000000000000008152600401610bcd90612993565b60405180910390fd5b60008054906101000a900473ffffffffffffffffffffffffffffffffffffffff1673ffffffffffffffffffffffffffffffffffffffff166323b872dd33600460009054906101000a900473ffffffffffffffffffffffffffffffffffffffff166003546040518463ffffffff1660e01b8152600401610c57939291906125ba565b6020604051808303816000875af1158015610c76573d6000803e3d6000fd5b505050506040513d601f19601f82011682018060405250810190610c9a919061232d565b610cd9576040517f08c379a0000000000000000000000000000000000000000000000000000000008152600401610cd09061263d565b60405180910390fd5b6000600184604051610ceb9190612425565b9081526020016040518091039020905060006003811115610d0f57610d0e61243c565b5b8160010160009054906101000a900460ff166003811115610d3357610d3261243c565b5b14610d73576040517f08c379a0000000000000000000000000000000000000000000000000000000008152600401610d6a906129ff565b60405180910390fd5b84604051602001610d849190612425565b6040516020818303038152906040528051906020012081600001604051602001610dae9190612aa2565b6040516020818303038152906040528051906020012014610e04576040517f08c379a0000000000000000000000000000000000000000000000000000000008152600401610dfb90612b05565b60405180910390fd5b60038160010160006101000a81548160ff02191690836003811115610e2c57610e2b61243c565b5b02179055505050505050565b60035481565b60008054906101000a900473ffffffffffffffffffffffffffffffffffffffff1673ffffffffffffffffffffffffffffffffffffffff16633af32abf336040518263ffffffff1660e01b8152600401610e979190611e94565b602060405180830381865afa158015610eb4573d6000803e3d6000fd5b505050506040513d601f19601f82011682018060405250810190610ed8919061232d565b610f17576040517f08c379a0000000000000000000000000000000000000000000000000000000008152600401610f0e9061252e565b60405180910390fd5b6000610f268260888451611989565b9050600181604051610f389190612425565b908152602001604051809103902060010160019054906101000a900460ff16610f96576040517f08c379a0000000000000000000000000000000000000000000000000000000008152600401610f8d90612927565b60405180910390fd5b6000610fa5836054607e611989565b90506000610fb282611b0e565b90508073ffffffffffffffffffffffffffffffffffffffff163373ffffffffffffffffffffffffffffffffffffffff1614611022576040517f08c379a000000000000000000000000000000000000000000000000000000000815260040161101990612b71565b60405180910390fd5b60008054906101000a900473ffffffffffffffffffffffffffffffffffffffff1673ffffffffffffffffffffffffffffffffffffffff166323b872dd33600460009054906101000a900473ffffffffffffffffffffffffffffffffffffffff166003546040518463ffffffff1660e01b81526004016110a3939291906125ba565b6020604051808303816000875af11580156110c2573d6000803e3d6000fd5b505050506040513d601f19601f820116820180604052508101906110e6919061232d565b611125576040517f08c379a000000000000000000000000000000000000000000000000000000000815260040161111c9061263d565b60405180910390fd5b60006001846040516111379190612425565b908152602001604051809103902090506001600381111561115b5761115a61243c565b5b8160010160009054906101000a900460ff16600381111561117f5761117e61243c565b5b146111bf576040517f08c379a00000000000000000000000000000000000000000000000000000000081526004016111b6906129ff565b60405180910390fd5b846040516020016111d09190612425565b60405160208183030381529060405280519060200120816000016040516020016111fa9190612aa2565b6040516020818303038152906040528051906020012014611250576040517f08c379a000000000000000000000000000000000000000000000000000000000815260040161124790612b05565b60405180910390fd5b60028160010160006101000a81548160ff021916908360038111156112785761127761243c565b5b02179055505050505050565b600460009054906101000a900473ffffffffffffffffffffffffffffffffffffffff1681565b60008054906101000a900473ffffffffffffffffffffffffffffffffffffffff1673ffffffffffffffffffffffffffffffffffffffff16633af32abf336040518263ffffffff1660e01b81526004016113039190611e94565b602060405180830381865afa158015611320573d6000803e3d6000fd5b505050506040513d601f19601f82011682018060405250810190611344919061232d565b611383576040517f08c379a000000000000000000000000000000000000000000000000000000000815260040161137a9061252e565b60405180910390fd5b60006113928260888451611989565b90506001816040516113a49190612425565b908152602001604051809103902060010160019054906101000a900460ff1615611403576040517f08c379a00000000000000000000000000000000000000000000000000000000081526004016113fa9061259a565b60405180910390fd5b600061141283602a6054611989565b9050600060019050600082905060005b815181101561149157602060f81b8282815181106114435761144261235a565b5b602001015160f81c60f81b7effffffffffffffffffffffffffffffffffffffffffffffffffffffffffffff19161461147e5760009250611491565b80806114899061249a565b915050611422565b50811580156114a15750602a8151145b1561158e5760006114b184611b0e565b905060008054906101000a900473ffffffffffffffffffffffffffffffffffffffff1673ffffffffffffffffffffffffffffffffffffffff16633af32abf826040518263ffffffff1660e01b815260040161150c9190611e94565b602060405180830381865afa158015611529573d6000803e3d6000fd5b505050506040513d601f19601f8201168201806040525081019061154d919061232d565b61158c576040517f08c379a000000000000000000000000000000000000000000000000000000000815260040161158390612bdd565b60405180910390fd5b505b60008054906101000a900473ffffffffffffffffffffffffffffffffffffffff1673ffffffffffffffffffffffffffffffffffffffff166323b872dd33600460009054906101000a900473ffffffffffffffffffffffffffffffffffffffff166003546040518463ffffffff1660e01b815260040161160f939291906125ba565b6020604051808303816000875af115801561162e573d6000803e3d6000fd5b505050506040513d601f19601f82011682018060405250810190611652919061232d565b611691576040517f08c379a00000000000000000000000000000000000000000000000000000000081526004016116889061263d565b60405180910390fd5b6000821580156116a25750602a8251145b6116ad5760016116b0565b60005b905060405180606001604052808781526020018260038111156116d6576116d561243c565b5b8152602001600115158152506001866040516116f29190612425565b908152602001604051809103902060008201518160000190816117159190612809565b5060208201518160010160006101000a81548160ff021916908360038111156117415761174061243c565b5b021790555060408201518160010160016101000a81548160ff02191690831515021790555090505060028590806001815401808255809150506001900390600052602060002001600090919091909150908161179d9190612809565b50505050505050565b6060600060038111156117bc576117bb61243c565b5b8260038111156117cf576117ce61243c565b5b03611811576040518060400160405280601581526020017f494e5f5452414e5349545f57484f4c4553414c455200000000000000000000008152509050611984565b600160038111156118255761182461243c565b5b8260038111156118385761183761243c565b5b0361187a576040518060400160405280601381526020017f494e5f5452414e5349545f52455441494c4552000000000000000000000000008152509050611984565b6002600381111561188e5761188d61243c565b5b8260038111156118a1576118a061243c565b5b036118e3576040518060400160405280600981526020017f44454c49564552454400000000000000000000000000000000000000000000008152509050611984565b6003808111156118f6576118f561243c565b5b8260038111156119095761190861243c565b5b0361194b576040518060400160405280601381526020017f57484f4c4553414c45525f5245434549564544000000000000000000000000008152509050611984565b6040518060400160405280600e81526020017f696e76616c69645f73746174757300000000000000000000000000000000000081525090505b919050565b6060600084905080518311156119d4576040517f08c379a00000000000000000000000000000000000000000000000000000000081526004016119cb90612c49565b60405180910390fd5b838311611a16576040517f08c379a0000000000000000000000000000000000000000000000000000000008152600401611a0d90612cb5565b60405180910390fd5b60008484611a249190612cd5565b905060008167ffffffffffffffff811115611a4257611a416120e6565b5b6040519080825280601f01601f191660200182016040528015611a745781602001600182028036833780820191505090505b50905060005b82811015611b0057838188611a8f9190612d09565b81518110611aa057611a9f61235a565b5b602001015160f81c60f81b828281518110611abe57611abd61235a565b5b60200101907effffffffffffffffffffffffffffffffffffffffffffffffffffffffffffff1916908160001a9053508080611af89061249a565b915050611a7a565b508093505050509392505050565b600080829050600080806000600290505b602a811015611dcf5761010084611b369190612d3d565b9350848181518110611b4b57611b4a61235a565b5b602001015160f81c60f81b60f81c60ff16925084600182611b6c9190612d09565b81518110611b7d57611b7c61235a565b5b602001015160f81c60f81b60f81c60ff16915060618373ffffffffffffffffffffffffffffffffffffffff1610158015611bce575060668373ffffffffffffffffffffffffffffffffffffffff1611155b15611be757605783611be09190612d7f565b9250611c93565b60418373ffffffffffffffffffffffffffffffffffffffff1610158015611c25575060468373ffffffffffffffffffffffffffffffffffffffff1611155b15611c3e57603783611c379190612d7f565b9250611c92565b60308373ffffffffffffffffffffffffffffffffffffffff1610158015611c7c575060398373ffffffffffffffffffffffffffffffffffffffff1611155b15611c9157603083611c8e9190612d7f565b92505b5b5b60618273ffffffffffffffffffffffffffffffffffffffff1610158015611cd1575060668273ffffffffffffffffffffffffffffffffffffffff1611155b15611cea57605782611ce39190612d7f565b9150611d96565b60418273ffffffffffffffffffffffffffffffffffffffff1610158015611d28575060468273ffffffffffffffffffffffffffffffffffffffff1611155b15611d4157603782611d3a9190612d7f565b9150611d95565b60308273ffffffffffffffffffffffffffffffffffffffff1610158015611d7f575060398273ffffffffffffffffffffffffffffffffffffffff1611155b15611d9457603082611d919190612d7f565b91505b5b5b81601084611da49190612d3d565b611dae9190612dc7565b84611db99190612dc7565b9350600281611dc89190612d09565b9050611b1f565b5082945050505050919050565b6000604051905090565b600080fd5b600080fd5b6000819050919050565b611e0381611df0565b8114611e0e57600080fd5b50565b600081359050611e2081611dfa565b92915050565b600060208284031215611e3c57611e3b611de6565b5b6000611e4a84828501611e11565b91505092915050565b600073ffffffffffffffffffffffffffffffffffffffff82169050919050565b6000611e7e82611e53565b9050919050565b611e8e81611e73565b82525050565b6000602082019050611ea96000830184611e85565b92915050565b611eb881611e73565b8114611ec357600080fd5b50565b600081359050611ed581611eaf565b92915050565b600060208284031215611ef157611ef0611de6565b5b6000611eff84828501611ec6565b91505092915050565b60008115159050919050565b611f1d81611f08565b82525050565b6000602082019050611f386000830184611f14565b92915050565b600081519050919050565b600082825260208201905092915050565b6000819050602082019050919050565b600081519050919050565b600082825260208201905092915050565b60005b83811015611fa4578082015181840152602081019050611f89565b60008484015250505050565b6000601f19601f8301169050919050565b6000611fcc82611f6a565b611fd68185611f75565b9350611fe6818560208601611f86565b611fef81611fb0565b840191505092915050565b60006120068383611fc1565b905092915050565b6000602082019050919050565b600061202682611f3e565b6120308185611f49565b93508360208202850161204285611f5a565b8060005b8581101561207e578484038952815161205f8582611ffa565b945061206a8361200e565b925060208a01995050600181019050612046565b50829750879550505050505092915050565b600060608201905081810360008301526120aa818661201b565b905081810360208301526120be818561201b565b905081810360408301526120d2818461201b565b9050949350505050565b600080fd5b600080fd5b7f4e487b7100000000000000000000000000000000000000000000000000000000600052604160045260246000fd5b61211e82611fb0565b810181811067ffffffffffffffff8211171561213d5761213c6120e6565b5b80604052505050565b6000612150611ddc565b905061215c8282612115565b919050565b600067ffffffffffffffff82111561217c5761217b6120e6565b5b61218582611fb0565b9050602081019050919050565b82818337600083830152505050565b60006121b46121af84612161565b612146565b9050828152602081018484840111156121d0576121cf6120e1565b5b6121db848285612192565b509392505050565b600082601f8301126121f8576121f76120dc565b5b81356122088482602086016121a1565b91505092915050565b60006020828403121561222757612226611de6565b5b600082013567ffffffffffffffff81111561224557612244611deb565b5b612251848285016121e3565b91505092915050565b61226381611df0565b82525050565b600060208201905061227e600083018461225a565b92915050565b600082825260208201905092915050565b7f4f6e6c792066656520636f6c6c6563746f720000000000000000000000000000600082015250565b60006122cb601283612284565b91506122d682612295565b602082019050919050565b600060208201905081810360008301526122fa816122be565b9050919050565b61230a81611f08565b811461231557600080fd5b50565b60008151905061232781612301565b92915050565b60006020828403121561234357612342611de6565b5b600061235184828501612318565b91505092915050565b7f4e487b7100000000000000000000000000000000000000000000000000000000600052603260045260246000fd5b7f4e487b7100000000000000000000000000000000000000000000000000000000600052602260045260246000fd5b600060028204905060018216806123d057607f821691505b6020821081036123e3576123e2612389565b5b50919050565b600081905092915050565b60006123ff82611f6a565b61240981856123e9565b9350612419818560208601611f86565b80840191505092915050565b600061243182846123f4565b915081905092915050565b7f4e487b7100000000000000000000000000000000000000000000000000000000600052602160045260246000fd5b7f4e487b7100000000000000000000000000000000000000000000000000000000600052601160045260246000fd5b60006124a582611df0565b91507fffffffffffffffffffffffffffffffffffffffffffffffffffffffffffffffff82036124d7576124d661246b565b5b600182019050919050565b7f41646472657373206e6f742077686974656c6973746564000000000000000000600082015250565b6000612518601783612284565b9150612523826124e2565b602082019050919050565b600060208201905081810360008301526125478161250b565b9050919050565b7f5472616e73616374696f6e20616c726561647920657869737473000000000000600082015250565b6000612584601a83612284565b915061258f8261254e565b602082019050919050565b600060208201905081810360008301526125b381612577565b9050919050565b60006060820190506125cf6000830186611e85565b6125dc6020830185611e85565b6125e9604083018461225a565b949350505050565b7f466565207061796d656e74206661696c65640000000000000000000000000000600082015250565b6000612627601283612284565b9150612632826125f1565b602082019050919050565b600060208201905081810360008301526126568161261a565b9050919050565b60008190508160005260206000209050919050565b60006020601f8301049050919050565b600082821b905092915050565b6000600883026126bf7fffffffffffffffffffffffffffffffffffffffffffffffffffffffffffffffff82612682565b6126c98683612682565b95508019841693508086168417925050509392505050565b6000819050919050565b60006127066127016126fc84611df0565b6126e1565b611df0565b9050919050565b6000819050919050565b612720836126eb565b61273461272c8261270d565b84845461268f565b825550505050565b600090565b61274961273c565b612754818484612717565b505050565b5b818110156127785761276d600082612741565b60018101905061275a565b5050565b601f8211156127bd5761278e8161265d565b61279784612672565b810160208510156127a6578190505b6127ba6127b285612672565b830182612759565b50505b505050565b600082821c905092915050565b60006127e0600019846008026127c2565b1980831691505092915050565b60006127f983836127cf565b9150826002028217905092915050565b61281282611f6a565b67ffffffffffffffff81111561282b5761282a6120e6565b5b61283582546123b8565b61284082828561277c565b600060209050601f8311600181146128735760008415612861578287015190505b61286b85826127ed565b8655506128d3565b601f1984166128818661265d565b60005b828110156128a957848901518255600182019150602085019450602081019050612884565b868310156128c657848901516128c2601f8916826127cf565b8355505b6001600288020188555050505b505050505050565b7f5472616e73616374696f6e206e6f7420666f756e640000000000000000000000600082015250565b6000612911601583612284565b915061291c826128db565b602082019050919050565b6000602082019050818103600083015261294081612904565b9050919050565b7f4e6f742061737369676e65642077686f6c6573616c6572000000000000000000600082015250565b600061297d601783612284565b915061298882612947565b602082019050919050565b600060208201905081810360008301526129ac81612970565b9050919050565b7f53746174757320696e636f727265637400000000000000000000000000000000600082015250565b60006129e9601083612284565b91506129f4826129b3565b602082019050919050565b60006020820190508181036000830152612a18816129dc565b9050919050565b60008154612a2c816123b8565b612a3681866123e9565b94506001821660008114612a515760018114612a6657612a99565b60ff1983168652811515820286019350612a99565b612a6f8561265d565b60005b83811015612a9157815481890152600182019150602081019050612a72565b838801955050505b50505092915050565b6000612aae8284612a1f565b915081905092915050565b7f48617368206d69736d6174636800000000000000000000000000000000000000600082015250565b6000612aef600d83612284565b9150612afa82612ab9565b602082019050919050565b60006020820190508181036000830152612b1e81612ae2565b9050919050565b7f4e6f742061737369676e65642072657461696c65720000000000000000000000600082015250565b6000612b5b601583612284565b9150612b6682612b25565b602082019050919050565b60006020820190508181036000830152612b8a81612b4e565b9050919050565b7f57686f6c6573616c6572206e6f742077686974656c6973746564000000000000600082015250565b6000612bc7601a83612284565b9150612bd282612b91565b602082019050919050565b60006020820190508181036000830152612bf681612bba565b9050919050565b7f456e642065786365656473206c656e6774680000000000000000000000000000600082015250565b6000612c33601283612284565b9150612c3e82612bfd565b602082019050919050565b60006020820190508181036000830152612c6281612c26565b9050919050565b7f496e76616c696420736c69636500000000000000000000000000000000000000600082015250565b6000612c9f600d83612284565b9150612caa82612c69565b602082019050919050565b60006020820190508181036000830152612cce81612c92565b9050919050565b6000612ce082611df0565b9150612ceb83611df0565b9250828203905081811115612d0357612d0261246b565b5b92915050565b6000612d1482611df0565b9150612d1f83611df0565b9250828201905080821115612d3757612d3661246b565b5b92915050565b6000612d4882611e53565b9150612d5383611e53565b9250828202612d6181611e53565b91508282048414831517612d7857612d7761246b565b5b5092915050565b6000612d8a82611e53565b9150612d9583611e53565b9250828203905073ffffffffffffffffffffffffffffffffffffffff811115612dc157612dc061246b565b5b92915050565b6000612dd282611e53565b9150612ddd83611e53565b9250828201905073ffffffffffffffffffffffffffffffffffffffff811115612e0957612e0861246b565b5b9291505056fea26469706673582212200d059d03d9ec9891925d3df844ef2fc5d36046c9254689af21b74767770dee9564736f6c63430008140033",
  "linkReferences": {},
  "deployedLinkReferences": {}
}