{
  "_format": "hh-sol-artifact-1",
  "contractName": "NirvanaToken",
  "sourceName": "contracts/newNirvanaToken.sol",
  "abi": [
    {
      "inputs": [
        {
          "internalType": "uint256",
          "name": "initialSupply",
          "type": "uint256"
        }
      ],
      "stateMutability": "nonpayable",
      "type": "constructor"
    },
    {
      "inputs": [
        {
          "internalType": "address",
          "name": "spender",
          "type": "address"
        },
        {
          "internalType": "uint256",
          "name": "allowance",
          "type": "uint256"
        },
        {
          "internalType": "uint256",
          "name": "needed",
          "type": "uint256"
        }
      ],
      "name": "ERC20InsufficientAllowance",
      "type": "error"
    },
    {
      "inputs": [
        {
          "internalType": "address",
          "name": "sender",
          "type": "address"
        },
        {
          "internalType": "uint256",
          "name": "balance",
          "type": "uint256"
        },
        {
          "internalType": "uint256",
          "name": "needed",
          "type": "uint256"
        }
      ],
      "name": "ERC20InsufficientBalance",
      "type": "error"
    },
    {
      "inputs": [
        {
          "internalType": "address",
          "name": "approver",
          "type": "address"
        }
      ],
      "name": "ERC20InvalidApprover",
      "type": "error"
    },
    {
      "inputs": [
        {
          "internalType": "address",
          "name": "receiver",
          "type": "address"
        }
      ],
      "name": "ERC20InvalidReceiver",
      "type": "error"
    },
    {
      "inputs": [
        {
          "internalType": "address",
          "name": "sender",
          "type": "address"
        }
      ],
      "name": "ERC20InvalidSender",
      "type": "error"
    },
    {
      "inputs": [
        {
          "internalType": "address",
          "name": "spender",
          "type": "address"
        }
      ],
      "name": "ERC20InvalidSpender",
      "type": "error"
    },
    {
      "inputs": [
        {
          "internalType": "address",
          "name": "owner",
          "type": "address"
        }
      ],
      "name": "OwnableInvalidOwner",
      "type": "error"
    },
    {
      "inputs": [
        {
          "internalType": "address",
          "name": "account",
          "type": "address"
        }
      ],
      "name": "OwnableUnauthorizedAccount",
      "type": "error"
    },
    {
      "anonymous": false,
      "inputs": [
        {
          "indexed": true,
          "internalType": "address",
          "name": "account",
          "type": "address"
        }
      ],
      "name": "AddedToWhitelist",
      "type": "event"
    },
    {
      "anonymous": false,
      "inputs": [
        {
          "indexed": true,
          "internalType": "address",
          "name": "owner",
          "type": "address"
        },
        {
          "indexed": true,
          "internalType": "address",
          "name": "spender",
          "type": "address"
        },
        {
          "indexed": false,
          "internalType": "uint256",
          "name": "value",
          "type": "uint256"
        }
      ],
      "name": "Approval",
      "type": "event"
    },
    {
      "anonymous": false,
      "inputs": [
        {
          "indexed": true,
          "internalType": "address",
          "name": "previousOwner",
          "type": "address"
        },
        {
          "indexed": true,
          "internalType": "address",
          "name": "newOwner",
          "type": "address"
        }
      ],
      "name": "OwnershipTransferred",
      "type": "event"
    },
    {
      "anonymous": false,
      "inputs": [
        {
          "indexed": true,
          "internalType": "address",
          "name": "account",
          "type": "address"
        }
      ],
      "name": "RemovedFromWhitelist",
      "type": "event"
    },
    {
      "anonymous": false,
      "inputs": [
        {
          "indexed": true,
          "internalType": "address",
          "name": "from",
          "type": "address"
        },
        {
          "indexed": true,
          "internalType": "address",
          "name": "to",
          "type": "address"
        },
        {
          "indexed": false,
          "internalType": "uint256",
          "name": "value",
          "type": "uint256"
        }
      ],
      "name": "Transfer",
      "type": "event"
    },
    {
      "inputs": [
        {
          "internalType": "address[]",
          "name": "accounts",
          "type": "address[]"
        }
      ],
      "name": "addBatchToWhitelist",
      "outputs": [],
      "stateMutability": "nonpayable",
      "type": "function"
    },
    {
      "inputs": [
        {
          "internalType": "address",
          "name": "account",
          "type": "address"
        }
      ],
      "name": "addToWhitelist",
      "outputs": [],
      "stateMutability": "nonpayable",
      "type": "function"
    },
    {
      "inputs": [
        {
          "internalType": "address",
          "name": "owner",
          "type": "address"
        },
        {
          "internalType": "address",
          "name": "spender",
          "type": "address"
        }
      ],
      "name": "allowance",
      "outputs": [
        {
          "internalType": "uint256",
          "name": "",
          "type": "uint256"
        }
      ],
      "stateMutability": "view",
      "type": "function"
    },
    {
      "inputs": [
        {
          "internalType": "address",
          "name": "spender",
          "type": "address"
        },
        {
          "internalType": "uint256",
          "name": "value",
          "type": "uint256"
        }
      ],
      "name": "approve",
      "outputs": [
        {
          "internalType": "bool",
          "name": "",
          "type": "bool"
        }
      ],
      "stateMutability": "nonpayable",
      "type": "function"
    },
    {
      "inputs": [
        {
          "internalType": "address",
          "name": "account",
          "type": "address"
        }
      ],
      "name": "balanceOf",
      "outputs": [
        {
          "internalType": "uint256",
          "name": "",
          "type": "uint256"
        }
      ],
      "stateMutability": "view",
      "type": "function"
    },
    {
      "inputs": [],
      "name": "decimals",
      "outputs": [
        {
          "internalType": "uint8",
          "name": "",
          "type": "uint8"
        }
      ],
      "stateMutability": "view",
      "type": "function"
    },
    {
      "inputs": [
        {
          "internalType": "address",
          "name": "account",
          "type": "address"
        }
      ],
      "name": "isWhitelisted",
      "outputs": [
        {
          "internalType": "bool",
          "name": "",
          "type": "bool"
        }
      ],
      "stateMutability": "view",
      "type": "function"
    },
    {
      "inputs": [],
      "name": "name",
      "outputs": [
        {
          "internalType": "string",
          "name": "",
          "type": "string"
        }
      ],
      "stateMutability": "view",
      "type": "function"
    },
    {
      "inputs": [],
      "name": "owner",
      "outputs": [
        {
          "internalType": "address",
          "name": "",
          "type": "address"
        }
      ],
      "stateMutability": "view",
      "type": "function"
    },
    {
      "inputs": [
        {
          "internalType": "address",
          "name": "account",
          "type": "address"
        }
      ],
      "name": "removeFromWhitelist",
      "outputs": [],
      "stateMutability": "nonpayable",
      "type": "function"
    },
    {
      "inputs": [],
      "name": "renounceOwnership",
      "outputs": [],
      "stateMutability": "nonpayable",
      "type": "function"
    },
    {
      "inputs": [],
      "name": "symbol",
      "outputs": [
        {
          "internalType": "string",
          "name": "",
          "type": "string"
        }
      ],
      "stateMutability": "view",
      "type": "function"
    },
    {
      "inputs": [],
      "name": "totalSupply",
      "outputs": [
        {
          "internalType": "uint256",
          "name": "",
          "type": "uint256"
        }
      ],
      "stateMutability": "view",
      "type": "function"
    },
    {
      "inputs": [
        {
          "internalType": "address",
          "name": "to",
          "type": "address"
        },
        {
          "internalType": "uint256",
          "name": "value",
          "type": "uint256"
        }
      ],
      "name": "transfer",
      "outputs": [
        {
          "internalType": "bool",
          "name": "",
          "type": "bool"
        }
      ],
      "stateMutability": "nonpayable",
      "type": "function"
    },
    {
      "inputs": [
        {
          "internalType": "address",
          "name": "from",
          "type": "address"
        },
        {
          "internalType": "address",
          "name": "to",
          "type": "address"
        },
        {
          "internalType": "uint256",
          "name": "value",
          "type": "uint256"
        }
      ],
      "name": "transferFrom",
      "outputs": [
        {
          "internalType": "bool",
          "name": "",
          "type": "bool"
        }
      ],
      "stateMutability": "nonpayable",
      "type": "function"
    },
    {
      "inputs": [
        {
          "internalType": "address",
          "name": "newOwner",
          "type": "address"
        }
      ],
      "name": "transferOwnership",
      "outputs": [],
      "stateMutability": "nonpayable",
      "type": "function"
    }
  ],
  "bytecode": "0x60806040523480156200001157600080fd5b5060405162002a6438038062002a64833981810160405281019062000037919062000708565b336040518060400160405280600d81526020017f4e697276616e6120546f6b656e000000000000000000000000000000000000008152506040518060400160405280600381526020017f4e534300000000000000000000000000000000000000000000000000000000008152508160039081620000b59190620009aa565b508060049081620000c79190620009aa565b505050600073ffffffffffffffffffffffffffffffffffffffff168173ffffffffffffffffffffffffffffffffffffffff16036200013f5760006040517f1e4fbdf700000000000000000000000000000000000000000000000000000000815260040162000136919062000ad6565b60405180910390fd5b62000150816200019460201b60201c565b506200018d33620001666200025a60201b60201c565b600a62000174919062000c83565b8362000181919062000cd4565b6200026360201b60201c565b5062000eba565b6000600560009054906101000a900473ffffffffffffffffffffffffffffffffffffffff16905081600560006101000a81548173ffffffffffffffffffffffffffffffffffffffff021916908373ffffffffffffffffffffffffffffffffffffffff1602179055508173ffffffffffffffffffffffffffffffffffffffff168173ffffffffffffffffffffffffffffffffffffffff167f8be0079c531659141344cd1fd0a4f28419497f9722a3daafe3b4186f6b6457e060405160405180910390a35050565b60006012905090565b600073ffffffffffffffffffffffffffffffffffffffff168273ffffffffffffffffffffffffffffffffffffffff1603620002d85760006040517fec442f05000000000000000000000000000000000000000000000000000000008152600401620002cf919062000ad6565b60405180910390fd5b620002ec60008383620002f060201b60201c565b5050565b600073ffffffffffffffffffffffffffffffffffffffff168373ffffffffffffffffffffffffffffffffffffffff16141580156200035b5750600073ffffffffffffffffffffffffffffffffffffffff168273ffffffffffffffffffffffffffffffffffffffff1614155b156200048057600660008473ffffffffffffffffffffffffffffffffffffffff1673ffffffffffffffffffffffffffffffffffffffff16815260200190815260200160002060009054906101000a900460ff16620003f0576040517f08c379a0000000000000000000000000000000000000000000000000000000008152600401620003e79062000d80565b60405180910390fd5b600660008373ffffffffffffffffffffffffffffffffffffffff1673ffffffffffffffffffffffffffffffffffffffff16815260200190815260200160002060009054906101000a900460ff166200047f576040517f08c379a0000000000000000000000000000000000000000000000000000000008152600401620004769062000df2565b60405180910390fd5b5b620004938383836200049860201b60201c565b505050565b600073ffffffffffffffffffffffffffffffffffffffff168373ffffffffffffffffffffffffffffffffffffffff1603620004ee578060026000828254620004e1919062000e14565b92505081905550620005c4565b60008060008573ffffffffffffffffffffffffffffffffffffffff1673ffffffffffffffffffffffffffffffffffffffff168152602001908152602001600020549050818110156200057d578381836040517fe450d38c000000000000000000000000000000000000000000000000000000008152600401620005749392919062000e60565b60405180910390fd5b8181036000808673ffffffffffffffffffffffffffffffffffffffff1673ffffffffffffffffffffffffffffffffffffffff16815260200190815260200160002081905550505b600073ffffffffffffffffffffffffffffffffffffffff168273ffffffffffffffffffffffffffffffffffffffff16036200060f57806002600082825403925050819055506200065c565b806000808473ffffffffffffffffffffffffffffffffffffffff1673ffffffffffffffffffffffffffffffffffffffff168152602001908152602001600020600082825401925050819055505b8173ffffffffffffffffffffffffffffffffffffffff168373ffffffffffffffffffffffffffffffffffffffff167fddf252ad1be2c89b69c2b068fc378daa952ba7f163c4a11628f55a4df523b3ef83604051620006bb919062000e9d565b60405180910390a3505050565b600080fd5b6000819050919050565b620006e281620006cd565b8114620006ee57600080fd5b50565b6000815190506200070281620006d7565b92915050565b600060208284031215620007215762000720620006c8565b5b60006200073184828501620006f1565b91505092915050565b600081519050919050565b7f4e487b7100000000000000000000000000000000000000000000000000000000600052604160045260246000fd5b7f4e487b7100000000000000000000000000000000000000000000000000000000600052602260045260246000fd5b60006002820490506001821680620007bc57607f821691505b602082108103620007d257620007d162000774565b5b50919050565b60008190508160005260206000209050919050565b60006020601f8301049050919050565b600082821b905092915050565b6000600883026200083c7fffffffffffffffffffffffffffffffffffffffffffffffffffffffffffffffff82620007fd565b620008488683620007fd565b95508019841693508086168417925050509392505050565b6000819050919050565b60006200088b620008856200087f84620006cd565b62000860565b620006cd565b9050919050565b6000819050919050565b620008a7836200086a565b620008bf620008b68262000892565b8484546200080a565b825550505050565b600090565b620008d6620008c7565b620008e38184846200089c565b505050565b5b818110156200090b57620008ff600082620008cc565b600181019050620008e9565b5050565b601f8211156200095a576200092481620007d8565b6200092f84620007ed565b810160208510156200093f578190505b620009576200094e85620007ed565b830182620008e8565b50505b505050565b600082821c905092915050565b60006200097f600019846008026200095f565b1980831691505092915050565b60006200099a83836200096c565b9150826002028217905092915050565b620009b5826200073a565b67ffffffffffffffff811115620009d157620009d062000745565b5b620009dd8254620007a3565b620009ea8282856200090f565b600060209050601f83116001811462000a22576000841562000a0d578287015190505b62000a1985826200098c565b86555062000a89565b601f19841662000a3286620007d8565b60005b8281101562000a5c5784890151825560018201915060208501945060208101905062000a35565b8683101562000a7c578489015162000a78601f8916826200096c565b8355505b6001600288020188555050505b505050505050565b600073ffffffffffffffffffffffffffffffffffffffff82169050919050565b600062000abe8262000a91565b9050919050565b62000ad08162000ab1565b82525050565b600060208201905062000aed600083018462000ac5565b92915050565b7f4e487b7100000000000000000000000000000000000000000000000000000000600052601160045260246000fd5b60008160011c9050919050565b6000808291508390505b600185111562000b815780860481111562000b595762000b5862000af3565b5b600185161562000b695780820291505b808102905062000b798562000b22565b945062000b39565b94509492505050565b60008262000b9c576001905062000c6f565b8162000bac576000905062000c6f565b816001811462000bc5576002811462000bd05762000c06565b600191505062000c6f565b60ff84111562000be55762000be462000af3565b5b8360020a91508482111562000bff5762000bfe62000af3565b5b5062000c6f565b5060208310610133831016604e8410600b841016171562000c405782820a90508381111562000c3a5762000c3962000af3565b5b62000c6f565b62000c4f848484600162000b2f565b9250905081840481111562000c695762000c6862000af3565b5b81810290505b9392505050565b600060ff82169050919050565b600062000c9082620006cd565b915062000c9d8362000c76565b925062000ccc7fffffffffffffffffffffffffffffffffffffffffffffffffffffffffffffffff848462000b8a565b905092915050565b600062000ce182620006cd565b915062000cee83620006cd565b925082820262000cfe81620006cd565b9150828204841483151762000d185762000d1762000af3565b5b5092915050565b600082825260208201905092915050565b7f53656e646572206e6f742077686974656c697374656400000000000000000000600082015250565b600062000d6860168362000d1f565b915062000d758262000d30565b602082019050919050565b6000602082019050818103600083015262000d9b8162000d59565b9050919050565b7f5265636569766572206e6f742077686974656c69737465640000000000000000600082015250565b600062000dda60188362000d1f565b915062000de78262000da2565b602082019050919050565b6000602082019050818103600083015262000e0d8162000dcb565b9050919050565b600062000e2182620006cd565b915062000e2e83620006cd565b925082820190508082111562000e495762000e4862000af3565b5b92915050565b62000e5a81620006cd565b82525050565b600060608201905062000e77600083018662000ac5565b62000e86602083018562000e4f565b62000e95604083018462000e4f565b949350505050565b600060208201905062000eb4600083018462000e4f565b92915050565b611b9a8062000eca6000396000f3fe608060405234801561001057600080fd5b50600436106101005760003560e01c80638ab1d68111610097578063a9059cbb11610066578063a9059cbb1461029d578063dd62ed3e146102cd578063e43252d7146102fd578063f2fde38b1461031957610100565b80638ab1d681146102295780638da5cb5b1461024557806395d89b4114610263578063a3d19d8c1461028157610100565b8063313ce567116100d3578063313ce567146101a15780633af32abf146101bf57806370a08231146101ef578063715018a61461021f57610100565b806306fdde0314610105578063095ea7b31461012357806318160ddd1461015357806323b872dd14610171575b600080fd5b61010d610335565b60405161011a91906114a4565b60405180910390f35b61013d60048036038101906101389190611564565b6103c7565b60405161014a91906115bf565b60405180910390f35b61015b6103ea565b60405161016891906115e9565b60405180910390f35b61018b60048036038101906101869190611604565b6103f4565b60405161019891906115bf565b60405180910390f35b6101a9610423565b6040516101b69190611673565b60405180910390f35b6101d960048036038101906101d4919061168e565b61042c565b6040516101e691906115bf565b60405180910390f35b6102096004803603810190610204919061168e565b610482565b60405161021691906115e9565b60405180910390f35b6102276104ca565b005b610243600480360381019061023e919061168e565b6104de565b005b61024d610610565b60405161025a91906116ca565b60405180910390f35b61026b61063a565b60405161027891906114a4565b60405180910390f35b61029b6004803603810190610296919061174a565b6106cc565b005b6102b760048036038101906102b29190611564565b6108be565b6040516102c491906115bf565b60405180910390f35b6102e760048036038101906102e29190611797565b6108e1565b6040516102f491906115e9565b60405180910390f35b6103176004803603810190610312919061168e565b610968565b005b610333600480360381019061032e919061168e565b610b0a565b005b60606003805461034490611806565b80601f016020809104026020016040519081016040528092919081815260200182805461037090611806565b80156103bd5780601f10610392576101008083540402835291602001916103bd565b820191906000526020600020905b8154815290600101906020018083116103a057829003601f168201915b5050505050905090565b6000806103d2610b90565b90506103df818585610b98565b600191505092915050565b6000600254905090565b6000806103ff610b90565b905061040c858285610baa565b610417858585610c3f565b60019150509392505050565b60006012905090565b6000600660008373ffffffffffffffffffffffffffffffffffffffff1673ffffffffffffffffffffffffffffffffffffffff16815260200190815260200160002060009054906101000a900460ff169050919050565b60008060008373ffffffffffffffffffffffffffffffffffffffff1673ffffffffffffffffffffffffffffffffffffffff168152602001908152602001600020549050919050565b6104d2610d33565b6104dc6000610dba565b565b6104e6610d33565b600660008273ffffffffffffffffffffffffffffffffffffffff1673ffffffffffffffffffffffffffffffffffffffff16815260200190815260200160002060009054906101000a900460ff16610572576040517f08c379a000000000000000000000000000000000000000000000000000000000815260040161056990611883565b60405180910390fd5b6000600660008373ffffffffffffffffffffffffffffffffffffffff1673ffffffffffffffffffffffffffffffffffffffff16815260200190815260200160002060006101000a81548160ff0219169083151502179055508073ffffffffffffffffffffffffffffffffffffffff167fcdd2e9b91a56913d370075169cefa1602ba36be5301664f752192bb1709df75760405160405180910390a250565b6000600560009054906101000a900473ffffffffffffffffffffffffffffffffffffffff16905090565b60606004805461064990611806565b80601f016020809104026020016040519081016040528092919081815260200182805461067590611806565b80156106c25780601f10610697576101008083540402835291602001916106c2565b820191906000526020600020905b8154815290600101906020018083116106a557829003601f168201915b5050505050905090565b6106d4610d33565b60005b828290508110156108b957600073ffffffffffffffffffffffffffffffffffffffff1683838381811061070d5761070c6118a3565b5b9050602002016020810190610722919061168e565b73ffffffffffffffffffffffffffffffffffffffff16141580156107b7575060066000848484818110610758576107576118a3565b5b905060200201602081019061076d919061168e565b73ffffffffffffffffffffffffffffffffffffffff1673ffffffffffffffffffffffffffffffffffffffff16815260200190815260200160002060009054906101000a900460ff16155b156108a6576001600660008585858181106107d5576107d46118a3565b5b90506020020160208101906107ea919061168e565b73ffffffffffffffffffffffffffffffffffffffff1673ffffffffffffffffffffffffffffffffffffffff16815260200190815260200160002060006101000a81548160ff02191690831515021790555082828281811061084e5761084d6118a3565b5b9050602002016020810190610863919061168e565b73ffffffffffffffffffffffffffffffffffffffff167fa850ae9193f515cbae8d35e8925bd2be26627fc91bce650b8652ed254e9cab0360405160405180910390a25b80806108b190611901565b9150506106d7565b505050565b6000806108c9610b90565b90506108d6818585610c3f565b600191505092915050565b6000600160008473ffffffffffffffffffffffffffffffffffffffff1673ffffffffffffffffffffffffffffffffffffffff16815260200190815260200160002060008373ffffffffffffffffffffffffffffffffffffffff1673ffffffffffffffffffffffffffffffffffffffff16815260200190815260200160002054905092915050565b610970610d33565b600073ffffffffffffffffffffffffffffffffffffffff168173ffffffffffffffffffffffffffffffffffffffff16036109df576040517f08c379a00000000000000000000000000000000000000000000000000000000081526004016109d690611995565b60405180910390fd5b600660008273ffffffffffffffffffffffffffffffffffffffff1673ffffffffffffffffffffffffffffffffffffffff16815260200190815260200160002060009054906101000a900460ff1615610a6c576040517f08c379a0000000000000000000000000000000000000000000000000000000008152600401610a6390611a01565b60405180910390fd5b6001600660008373ffffffffffffffffffffffffffffffffffffffff1673ffffffffffffffffffffffffffffffffffffffff16815260200190815260200160002060006101000a81548160ff0219169083151502179055508073ffffffffffffffffffffffffffffffffffffffff167fa850ae9193f515cbae8d35e8925bd2be26627fc91bce650b8652ed254e9cab0360405160405180910390a250565b610b12610d33565b600073ffffffffffffffffffffffffffffffffffffffff168173ffffffffffffffffffffffffffffffffffffffff1603610b845760006040517f1e4fbdf7000000000000000000000000000000000000000000000000000000008152600401610b7b91906116ca565b60405180910390fd5b610b8d81610dba565b50565b600033905090565b610ba58383836001610e80565b505050565b6000610bb684846108e1565b90507fffffffffffffffffffffffffffffffffffffffffffffffffffffffffffffffff811015610c395781811015610c29578281836040517ffb8f41b2000000000000000000000000000000000000000000000000000000008152600401610c2093929190611a21565b60405180910390fd5b610c3884848484036000610e80565b5b50505050565b600073ffffffffffffffffffffffffffffffffffffffff168373ffffffffffffffffffffffffffffffffffffffff1603610cb15760006040517f96c6fd1e000000000000000000000000000000000000000000000000000000008152600401610ca891906116ca565b60405180910390fd5b600073ffffffffffffffffffffffffffffffffffffffff168273ffffffffffffffffffffffffffffffffffffffff1603610d235760006040517fec442f05000000000000000000000000000000000000000000000000000000008152600401610d1a91906116ca565b60405180910390fd5b610d2e838383611057565b505050565b610d3b610b90565b73ffffffffffffffffffffffffffffffffffffffff16610d59610610565b73ffffffffffffffffffffffffffffffffffffffff1614610db857610d7c610b90565b6040517f118cdaa7000000000000000000000000000000000000000000000000000000008152600401610daf91906116ca565b60405180910390fd5b565b6000600560009054906101000a900473ffffffffffffffffffffffffffffffffffffffff16905081600560006101000a81548173ffffffffffffffffffffffffffffffffffffffff021916908373ffffffffffffffffffffffffffffffffffffffff1602179055508173ffffffffffffffffffffffffffffffffffffffff168173ffffffffffffffffffffffffffffffffffffffff167f8be0079c531659141344cd1fd0a4f28419497f9722a3daafe3b4186f6b6457e060405160405180910390a35050565b600073ffffffffffffffffffffffffffffffffffffffff168473ffffffffffffffffffffffffffffffffffffffff1603610ef25760006040517fe602df05000000000000000000000000000000000000000000000000000000008152600401610ee991906116ca565b60405180910390fd5b600073ffffffffffffffffffffffffffffffffffffffff168373ffffffffffffffffffffffffffffffffffffffff1603610f645760006040517f94280d62000000000000000000000000000000000000000000000000000000008152600401610f5b91906116ca565b60405180910390fd5b81600160008673ffffffffffffffffffffffffffffffffffffffff1673ffffffffffffffffffffffffffffffffffffffff16815260200190815260200160002060008573ffffffffffffffffffffffffffffffffffffffff1673ffffffffffffffffffffffffffffffffffffffff168152602001908152602001600020819055508015611051578273ffffffffffffffffffffffffffffffffffffffff168473ffffffffffffffffffffffffffffffffffffffff167f8c5be1e5ebec7d5bd14f71427d1e84f3dd0314c0f7b2291e5b200ac8c7c3b9258460405161104891906115e9565b60405180910390a35b50505050565b600073ffffffffffffffffffffffffffffffffffffffff168373ffffffffffffffffffffffffffffffffffffffff16141580156110c15750600073ffffffffffffffffffffffffffffffffffffffff168273ffffffffffffffffffffffffffffffffffffffff1614155b156111df57600660008473ffffffffffffffffffffffffffffffffffffffff1673ffffffffffffffffffffffffffffffffffffffff16815260200190815260200160002060009054906101000a900460ff16611152576040517f08c379a000000000000000000000000000000000000000000000000000000000815260040161114990611aa4565b60405180910390fd5b600660008373ffffffffffffffffffffffffffffffffffffffff1673ffffffffffffffffffffffffffffffffffffffff16815260200190815260200160002060009054906101000a900460ff166111de576040517f08c379a00000000000000000000000000000000000000000000000000000000081526004016111d590611b10565b60405180910390fd5b5b6111ea8383836111ef565b505050565b600073ffffffffffffffffffffffffffffffffffffffff168373ffffffffffffffffffffffffffffffffffffffff16036112415780600260008282546112359190611b30565b92505081905550611314565b60008060008573ffffffffffffffffffffffffffffffffffffffff1673ffffffffffffffffffffffffffffffffffffffff168152602001908152602001600020549050818110156112cd578381836040517fe450d38c0000000000000000000000000000000000000000000000000000000081526004016112c493929190611a21565b60405180910390fd5b8181036000808673ffffffffffffffffffffffffffffffffffffffff1673ffffffffffffffffffffffffffffffffffffffff16815260200190815260200160002081905550505b600073ffffffffffffffffffffffffffffffffffffffff168273ffffffffffffffffffffffffffffffffffffffff160361135d57806002600082825403925050819055506113aa565b806000808473ffffffffffffffffffffffffffffffffffffffff1673ffffffffffffffffffffffffffffffffffffffff168152602001908152602001600020600082825401925050819055505b8173ffffffffffffffffffffffffffffffffffffffff168373ffffffffffffffffffffffffffffffffffffffff167fddf252ad1be2c89b69c2b068fc378daa952ba7f163c4a11628f55a4df523b3ef8360405161140791906115e9565b60405180910390a3505050565b600081519050919050565b600082825260208201905092915050565b60005b8381101561144e578082015181840152602081019050611433565b60008484015250505050565b6000601f19601f8301169050919050565b600061147682611414565b611480818561141f565b9350611490818560208601611430565b6114998161145a565b840191505092915050565b600060208201905081810360008301526114be818461146b565b905092915050565b600080fd5b600080fd5b600073ffffffffffffffffffffffffffffffffffffffff82169050919050565b60006114fb826114d0565b9050919050565b61150b816114f0565b811461151657600080fd5b50565b60008135905061152881611502565b92915050565b6000819050919050565b6115418161152e565b811461154c57600080fd5b50565b60008135905061155e81611538565b92915050565b6000806040838503121561157b5761157a6114c6565b5b600061158985828601611519565b925050602061159a8582860161154f565b9150509250929050565b60008115159050919050565b6115b9816115a4565b82525050565b60006020820190506115d460008301846115b0565b92915050565b6115e38161152e565b82525050565b60006020820190506115fe60008301846115da565b92915050565b60008060006060848603121561161d5761161c6114c6565b5b600061162b86828701611519565b935050602061163c86828701611519565b925050604061164d8682870161154f565b9150509250925092565b600060ff82169050919050565b61166d81611657565b82525050565b60006020820190506116886000830184611664565b92915050565b6000602082840312156116a4576116a36114c6565b5b60006116b284828501611519565b91505092915050565b6116c4816114f0565b82525050565b60006020820190506116df60008301846116bb565b92915050565b600080fd5b600080fd5b600080fd5b60008083601f84011261170a576117096116e5565b5b8235905067ffffffffffffffff811115611727576117266116ea565b5b602083019150836020820283011115611743576117426116ef565b5b9250929050565b60008060208385031215611761576117606114c6565b5b600083013567ffffffffffffffff81111561177f5761177e6114cb565b5b61178b858286016116f4565b92509250509250929050565b600080604083850312156117ae576117ad6114c6565b5b60006117bc85828601611519565b92505060206117cd85828601611519565b9150509250929050565b7f4e487b7100000000000000000000000000000000000000000000000000000000600052602260045260246000fd5b6000600282049050600182168061181e57607f821691505b602082108103611831576118306117d7565b5b50919050565b7f4e6f742077686974656c69737465640000000000000000000000000000000000600082015250565b600061186d600f8361141f565b915061187882611837565b602082019050919050565b6000602082019050818103600083015261189c81611860565b9050919050565b7f4e487b7100000000000000000000000000000000000000000000000000000000600052603260045260246000fd5b7f4e487b7100000000000000000000000000000000000000000000000000000000600052601160045260246000fd5b600061190c8261152e565b91507fffffffffffffffffffffffffffffffffffffffffffffffffffffffffffffffff820361193e5761193d6118d2565b5b600182019050919050565b7f5a65726f2061646472657373206e6f7420616c6c6f7765640000000000000000600082015250565b600061197f60188361141f565b915061198a82611949565b602082019050919050565b600060208201905081810360008301526119ae81611972565b9050919050565b7f416c72656164792077686974656c697374656400000000000000000000000000600082015250565b60006119eb60138361141f565b91506119f6826119b5565b602082019050919050565b60006020820190508181036000830152611a1a816119de565b9050919050565b6000606082019050611a3660008301866116bb565b611a4360208301856115da565b611a5060408301846115da565b949350505050565b7f53656e646572206e6f742077686974656c697374656400000000000000000000600082015250565b6000611a8e60168361141f565b9150611a9982611a58565b602082019050919050565b60006020820190508181036000830152611abd81611a81565b9050919050565b7f5265636569766572206e6f742077686974656c69737465640000000000000000600082015250565b6000611afa60188361141f565b9150611b0582611ac4565b602082019050919050565b60006020820190508181036000830152611b2981611aed565b9050919050565b6000611b3b8261152e565b9150611b468361152e565b9250828201905080821115611b5e57611b5d6118d2565b5b9291505056fea2646970667358221220f539a4e5a11f07189be9cc13fac6c7139d8c6eb1479ea9d9b060c7158febc8c064736f6c63430008140033",
  "linkReferences": {},
  "deployedLinkReferences": {}
}